{
  "_format": "hh-sol-artifact-1",
  "contractName": "Voting",
  "sourceName": "contracts/Voting.sol",
  "abi": [
    {
      "inputs": [
        {
          "internalType": "string[]",
          "name": "_proposalTitles",
          "type": "string[]"
        }
      ],
      "stateMutability": "nonpayable",
      "type": "constructor"
    },
    {
      "inputs": [],
      "name": "admin",
      "outputs": [
        {
          "internalType": "address",
          "name": "",
          "type": "address"
        }
      ],
      "stateMutability": "view",
      "type": "function"
    },
    {
      "inputs": [],
      "name": "getProposals",
      "outputs": [
        {
          "components": [
            {
              "internalType": "uint256",
              "name": "id",
              "type": "uint256"
            },
            {
              "internalType": "string",
              "name": "title",
              "type": "string"
            },
            {
              "internalType": "uint256",
              "name": "voteCount",
              "type": "uint256"
            }
          ],
          "internalType": "struct Voting.Proposal[]",
          "name": "",
          "type": "tuple[]"
        }
      ],
      "stateMutability": "view",
      "type": "function"
    },
    {
      "inputs": [
        {
          "internalType": "address",
          "name": "",
          "type": "address"
        }
      ],
      "name": "hasVoted",
      "outputs": [
        {
          "internalType": "bool",
          "name": "",
          "type": "bool"
        }
      ],
      "stateMutability": "view",
      "type": "function"
    },
    {
      "inputs": [
        {
          "internalType": "uint256",
          "name": "",
          "type": "uint256"
        }
      ],
      "name": "proposals",
      "outputs": [
        {
          "internalType": "uint256",
          "name": "id",
          "type": "uint256"
        },
        {
          "internalType": "string",
          "name": "title",
          "type": "string"
        },
        {
          "internalType": "uint256",
          "name": "voteCount",
          "type": "uint256"
        }
      ],
      "stateMutability": "view",
      "type": "function"
    },
    {
      "inputs": [
        {
          "internalType": "uint256",
          "name": "proposalId",
          "type": "uint256"
        }
      ],
      "name": "vote",
      "outputs": [],
      "stateMutability": "nonpayable",
      "type": "function"
    }
  ],
  "bytecode": "0x608060405234801561001057600080fd5b5060405161113d38038061113d8339818101604052810190610032919061037a565b336000806101000a81548173ffffffffffffffffffffffffffffffffffffffff021916908373ffffffffffffffffffffffffffffffffffffffff16021790555060005b815181101561011857600260405180606001604052808381526020018484815181106100a4576100a36103c3565b5b60200260200101518152602001600081525090806001815401808255809150506001900390600052602060002090600302016000909190919091506000820151816000015560208201518160010190816100fe9190610613565b506040820151816002015550508080600101915050610075565b50506106e5565b6000604051905090565b600080fd5b600080fd5b600080fd5b6000601f19601f8301169050919050565b7f4e487b7100000000000000000000000000000000000000000000000000000000600052604160045260246000fd5b61018182610138565b810181811067ffffffffffffffff821117156101a05761019f610149565b5b80604052505050565b60006101b361011f565b90506101bf8282610178565b919050565b600067ffffffffffffffff8211156101df576101de610149565b5b602082029050602081019050919050565b600080fd5b600080fd5b600067ffffffffffffffff82111561021557610214610149565b5b61021e82610138565b9050602081019050919050565b60005b8381101561024957808201518184015260208101905061022e565b60008484015250505050565b6000610268610263846101fa565b6101a9565b905082815260208101848484011115610284576102836101f5565b5b61028f84828561022b565b509392505050565b600082601f8301126102ac576102ab610133565b5b81516102bc848260208601610255565b91505092915050565b60006102d86102d3846101c4565b6101a9565b905080838252602082019050602084028301858111156102fb576102fa6101f0565b5b835b8181101561034257805167ffffffffffffffff8111156103205761031f610133565b5b80860161032d8982610297565b855260208501945050506020810190506102fd565b5050509392505050565b600082601f83011261036157610360610133565b5b81516103718482602086016102c5565b91505092915050565b6000602082840312156103905761038f610129565b5b600082015167ffffffffffffffff8111156103ae576103ad61012e565b5b6103ba8482850161034c565b91505092915050565b7f4e487b7100000000000000000000000000000000000000000000000000000000600052603260045260246000fd5b600081519050919050565b7f4e487b7100000000000000000000000000000000000000000000000000000000600052602260045260246000fd5b6000600282049050600182168061044457607f821691505b602082108103610457576104566103fd565b5b50919050565b60008190508160005260206000209050919050565b60006020601f8301049050919050565b600082821b905092915050565b6000600883026104bf7fffffffffffffffffffffffffffffffffffffffffffffffffffffffffffffffff82610482565b6104c98683610482565b95508019841693508086168417925050509392505050565b6000819050919050565b6000819050919050565b600061051061050b610506846104e1565b6104eb565b6104e1565b9050919050565b6000819050919050565b61052a836104f5565b61053e61053682610517565b84845461048f565b825550505050565b600090565b610553610546565b61055e818484610521565b505050565b5b818110156105825761057760008261054b565b600181019050610564565b5050565b601f8211156105c7576105988161045d565b6105a184610472565b810160208510156105b0578190505b6105c46105bc85610472565b830182610563565b50505b505050565b600082821c905092915050565b60006105ea600019846008026105cc565b1980831691505092915050565b600061060383836105d9565b9150826002028217905092915050565b61061c826103f2565b67ffffffffffffffff81111561063557610634610149565b5b61063f825461042c565b61064a828285610586565b600060209050601f83116001811461067d576000841561066b578287015190505b61067585826105f7565b8655506106dd565b601f19841661068b8661045d565b60005b828110156106b35784890151825560018201915060208501945060208101905061068e565b868310156106d057848901516106cc601f8916826105d9565b8355505b6001600288020188555050505b505050505050565b610a49806106f46000396000f3fe608060405234801561001057600080fd5b50600436106100575760003560e01c80630121b93f1461005c578063013cf08b1461007857806309eef43e146100aa57806362564c48146100da578063f851a440146100f8575b600080fd5b610076600480360381019061007191906104c7565b610116565b005b610092600480360381019061008d91906104c7565b610281565b6040516100a193929190610593565b60405180910390f35b6100c460048036038101906100bf919061062f565b610343565b6040516100d19190610677565b60405180910390f35b6100e2610363565b6040516100ef91906107fd565b60405180910390f35b610100610468565b60405161010d919061082e565b60405180910390f35b600160003373ffffffffffffffffffffffffffffffffffffffff1673ffffffffffffffffffffffffffffffffffffffff16815260200190815260200160002060009054906101000a900460ff16156101a3576040517f08c379a000000000000000000000000000000000000000000000000000000000815260040161019a90610895565b60405180910390fd5b60028054905081106101ea576040517f08c379a00000000000000000000000000000000000000000000000000000000081526004016101e190610901565b60405180910390fd5b60018060003373ffffffffffffffffffffffffffffffffffffffff1673ffffffffffffffffffffffffffffffffffffffff16815260200190815260200160002060006101000a81548160ff02191690831515021790555060016002828154811061025757610256610921565b5b90600052602060002090600302016002016000828254610277919061097f565b9250508190555050565b6002818154811061029157600080fd5b90600052602060002090600302016000915090508060000154908060010180546102ba906109e2565b80601f01602080910402602001604051908101604052809291908181526020018280546102e6906109e2565b80156103335780601f1061030857610100808354040283529160200191610333565b820191906000526020600020905b81548152906001019060200180831161031657829003601f168201915b5050505050908060020154905083565b60016020528060005260406000206000915054906101000a900460ff1681565b60606002805480602002602001604051908101604052809291908181526020016000905b8282101561045f5783829060005260206000209060030201604051806060016040529081600082015481526020016001820180546103c4906109e2565b80601f01602080910402602001604051908101604052809291908181526020018280546103f0906109e2565b801561043d5780601f106104125761010080835404028352916020019161043d565b820191906000526020600020905b81548152906001019060200180831161042057829003601f168201915b5050505050815260200160028201548152505081526020019060010190610387565b50505050905090565b60008054906101000a900473ffffffffffffffffffffffffffffffffffffffff1681565b600080fd5b6000819050919050565b6104a481610491565b81146104af57600080fd5b50565b6000813590506104c18161049b565b92915050565b6000602082840312156104dd576104dc61048c565b5b60006104eb848285016104b2565b91505092915050565b6104fd81610491565b82525050565b600081519050919050565b600082825260208201905092915050565b60005b8381101561053d578082015181840152602081019050610522565b60008484015250505050565b6000601f19601f8301169050919050565b600061056582610503565b61056f818561050e565b935061057f81856020860161051f565b61058881610549565b840191505092915050565b60006060820190506105a860008301866104f4565b81810360208301526105ba818561055a565b90506105c960408301846104f4565b949350505050565b600073ffffffffffffffffffffffffffffffffffffffff82169050919050565b60006105fc826105d1565b9050919050565b61060c816105f1565b811461061757600080fd5b50565b60008135905061062981610603565b92915050565b6000602082840312156106455761064461048c565b5b60006106538482850161061a565b91505092915050565b60008115159050919050565b6106718161065c565b82525050565b600060208201905061068c6000830184610668565b92915050565b600081519050919050565b600082825260208201905092915050565b6000819050602082019050919050565b6106c781610491565b82525050565b600082825260208201905092915050565b60006106e982610503565b6106f381856106cd565b935061070381856020860161051f565b61070c81610549565b840191505092915050565b600060608301600083015161072f60008601826106be565b506020830151848203602086015261074782826106de565b915050604083015161075c60408601826106be565b508091505092915050565b60006107738383610717565b905092915050565b6000602082019050919050565b600061079382610692565b61079d818561069d565b9350836020820285016107af856106ae565b8060005b858110156107eb57848403895281516107cc8582610767565b94506107d78361077b565b925060208a019950506001810190506107b3565b50829750879550505050505092915050565b600060208201905081810360008301526108178184610788565b905092915050565b610828816105f1565b82525050565b6000602082019050610843600083018461081f565b92915050565b7f416c726561647920766f74656400000000000000000000000000000000000000600082015250565b600061087f600d8361050e565b915061088a82610849565b602082019050919050565b600060208201905081810360008301526108ae81610872565b9050919050565b7f496e76616c69642070726f706f73616c00000000000000000000000000000000600082015250565b60006108eb60108361050e565b91506108f6826108b5565b602082019050919050565b6000602082019050818103600083015261091a816108de565b9050919050565b7f4e487b7100000000000000000000000000000000000000000000000000000000600052603260045260246000fd5b7f4e487b7100000000000000000000000000000000000000000000000000000000600052601160045260246000fd5b600061098a82610491565b915061099583610491565b92508282019050808211156109ad576109ac610950565b5b92915050565b7f4e487b7100000000000000000000000000000000000000000000000000000000600052602260045260246000fd5b600060028204905060018216806109fa57607f821691505b602082108103610a0d57610a0c6109b3565b5b5091905056fea26469706673582212201b44110a0137df4fc25199a743151bed0f6434f25b178db0c49a03a976f0ee9464736f6c634300081c0033",
  "linkReferences": {},
  "deployedLinkReferences": {}
}